:020000040800F2
:1000000038080020450100089B2E00086D290008D3
:10001000992E00087D1500080D350008000000002D
:10002000000000000000000000000000752F000824
:100030007F150008000000009D2E0008DD2F00083D
:100040005F0100085F0100085F0100085F01000810
:100050005F0100085F010008811500085F010008CA
:100060005F0100085F0100085F0100085F010008F0
:100070005F0100085F0100085F0100085F010008E0
:100080005F0100085F0100085F0100085F010008D0
:100090005F0100085F0100085F0100085F010008C0
:1000A0005F0100085F0100085F0100085F010008B0
:1000B0005F0100085F0100085F0100085F010008A0
:1000C0005F0100085F0100085F0100085F01000890
:1000D0005F010008F53400085F01000801350008E1
:1000E0005F0100085F0100085F0100085F01000870
:1000F0005F0100085F0100085F0100085F01000860
:100100005F0100085F0100085F0100085F0100084F
:100110005F0100085F0100085F0100085F0100083F
:100120005F0100085F0100085F0100085F0100082F
:10013000DFF80CD000F042FE0048004715530008DD
:10014000380800200648804706480047FEE7FEE7DB
:10015000FEE7FEE7FEE7FEE7FEE7FEE7FEE7FEE777
:100160003F30000831010008202A04DB203A21FA40
:1001700002F00021704721FA02F3D040C2F12002C0
:100180009140084319467047D2B201E000F8012BB4
:10019000491EFBD270470022F6E710B513460A4607
:1001A00004461946FFF7F0FF204610BD421C10F828
:1001B000011B0029FBD1801A704700000FB400B565
:1001C0008DB010A909900B9000914FF0FF300A906C
:1001D00000200C9005480690054807906A4609A83B
:1001E0000F9900F021FC0DB05DF814FB450A0008E2
:1001F000630A00082DE9FF5FD2E901A74FF000086C
:10020000916999461446DDF838B04646019888470A
:10021000054659EA0B0005D009E0A169761C019852
:1002200088470546216A284688470028F5D1681C7A
:1002300003D05FEACA7005D015E04FF0FF3004B07C
:10024000BDE8F09F2068011D2160D0F800800AE021
:100250005FEACA7001D108F8015BA169761C7F1EB4
:10026000019888470546002F1ADD681C18D0B9F19F
:10027000000F0DD0E81705EBD060421120F01F00F1
:1002800059F822102A1A012090400142E0D107E0DB
:10029000BBF1000FDCD1216A284688470028D7D05F
:1002A000E16901988847BBF1000F07D1002E05DDF9
:1002B0005FEACA7002D1002188F80010A068B84235
:1002C00003DDBBF1000F03D017B16FF00100B6E7FB
:1002D0003046B4E72DE9F04791460F468046044684
:1002E000002614F8015B2DB100F08AFB0068405D28
:1002F000C007F6D12B2D02D02D2D18D0641E4A46F2
:100300003946204600F0BEFB27B13968A14201D131
:10031000C7F8008071054FF002040BD54042002859
:1003200003DD03F03DF90460A007BDE8F08746F463
:100330008066E4E70028F8DA03F032F904606FF031
:100340000040F2E770B5064603F02AF90468054656
:100350000A2200213046FFF7BDFF2C6070BDF0B4CB
:1003600080EA0102D40F4200B2EB410F02D20246F2
:10037000084611464A0042D0C30DDDB2C1F3C75250
:10038000AD1A202D35DAC1F3160141F4000204B193
:100390005242C5F1200602FA06F12A411044B3EB9D
:1003A000D05F23D0C4B1012DA0EBC35009DCF0BC59
:1003B0004FF0004202EAC352DBB200F5000000F049
:1003C00008BC400000F1807000EBC350A0F18070C9
:1003D00040EAD170490009E0490841EAC071A0EB48
:1003E000C35000F50000400800EBC350F0BC00F023
:1003F000E7BB6142012202EB4101001BF6E7F0BCC2
:10040000704781F00041AAE780F00040A7E780EA4A
:10041000010210B502F00043400022D04A001FD074
:10042000010E01EB1261C0F35600C2F3560240F414
:10043000000042F40002A0FB022000047F391404F3
:1004400000D0401C50EA124001D44000491EC2B204
:100450000C0604EBD010401C4008802A02D003E0B8
:10046000002010BD20F00100002900DA0020184310
:1004700010BD2DE9FE4F804681EA0300C00F0C46F7
:10048000009021F0004123F00045B8EB0200A941A3
:1004900005D24046214690461C460B46024623F0B4
:1004A0000040104347D0270DC7F30A00C3F30A5199
:1004B0000290401A019040286BDAC3F3130040F415
:1004C000801B0098924620B10023D2EB030A63EB15
:1004D0000B0B01985946C0F14002504600F06FFAEC
:1004E00006460D4650465946019A00F077FA10EB41
:1004F00008006141002487EA115284EAE7731A4335
:1005000040D0009A62B3019A012A4FEA075215DCE3
:10051000001B61EB02014FF0004202EA0752CDE9F5
:100520000042001C41F5801132462B4600F08EFB44
:1005300003B0BDE8F08F40462146F9E7001B61EBB0
:100540000201001C41F5801300185B412018A2F540
:10055000001747EB030140EAD570B6196D4111E071
:100560006D084FEA360645EAC0754FEA0752001B90
:1005700061EB0201001C41F5801149084FEA30008F
:100580000019514132462B4603B0BDE8F04F00F050
:100590004EBB0098012240000023D0EB020263EB27
:1005A000E073009821464FEAE074B8EB000061EB7D
:1005B0000401E9E783F000435BE781F0004158E77D
:1005C0002DE9FE4F81EA030404F0004421F00041CC
:1005D00000944FF0000B23F0004350EA01045ED07A
:1005E00052EA03045BD0C3F30A54C1F30A552C4406
:1005F000A4F2F3340194A0FB0254C1F3130141F4BB
:100600008011C3F3130343F4801301FB024400FB86
:10061000034E840A970A44EA815447EA8357A4FBAD
:10062000076802958D0A05FB07854FEA932C04FBAA
:100630000C542705029D4FEA065847EA1637B5EBDA
:1006400008056EEB070C870E920E47EA811742EA07
:100650008312A7FB0201B6EB0B0164EB00042B0D28
:1006600043EA0C335E1844EB1C50DA465146E7FB74
:100670000201C5F313044FEA0B3343EA14534FEA64
:100680000432019C43EA0603A4F10C040294009C8A
:10069000CDE900B400F0DAFA03B0BDE8F08F002035
:1006A0000146F9E72DE9F04D81EA030404F0004B1F
:1006B00021F0004514464FF0000A23F0004150EAB3
:1006C000050220D054EA01021DD0C5F30A570246A4
:1006D000C5F31303C1F31300C1F30A5640F48015A8
:1006E00043F48013A7EB0608101BD64608F2FD382A
:1006F00073EB050002D308F1010801E092185B4199
:10070000B8F1000F03DA00200146BDE8F08D0020AB
:100710004FF48011064684460EE0171B73EB050765
:1007200005D3121B63EB050306434CEA010C490891
:100730004FEA300092185B4150EA0107EDD152EACE
:10074000030012D082EA040083EA0501084305D0C1
:10075000101BAB4106D20122002306E000224FF01D
:10076000004302E06FF0010253101AEB06004CEB5D
:10077000085110EB0A0041EB0B01BDE8F04D00F011
:1007800056BA70B521F0004303430CD0C1F30A55AB
:100790000024D5EB040564EB0403D617AD1AB3416E
:1007A00002DB0020014670BD201841EB025170BDF4
:1007B000C10F80EAE0700844CA079623002100F0C8
:1007C00008BA0EB5C10F80EAE0700844CA070021DC
:1007D00040F233438DE80E000A460B4600F036FA2D
:1007E00003B000BD0EB540F2334102910021CDE9C6
:1007F00000110A460B4600F029FA03B000BD00F0D4
:10080000004220F00040C10DC0F3160040F400008B
:100810007F2901DA00207047962903DCC1F1960197
:10082000C84001E096398840002AF4D04042704721
:1008300070B5C1F30A5201F000450024C1F3130161
:1008400040F2FF3341F480119A4201DA002070BD7A
:1008500040F233439A42A2F2334203DC5242FFF7A2
:1008600083FC00E090402C43F1D0404270BDC1F3C6
:100870000A5210B5C1F3130140F2FF3341F4801165
:100880009A4201DA002010BD40F233439A42A2F2AC
:10089000334203DC5242FFF767FC10BD904010BDAD
:1008A00000F0004230F000400AD0C10D01F5607147
:1008B000C0F3160042EA0151C208400711437047D5
:1008C000002001467047000030B5041E71F100049D
:1008D00004DB4FF00044404264EB0101141E73F14D
:1008E000000405DB1C464FF00043524263EB040357
:1008F000994208BF904230BD01F0004330B421F06E
:10090000004150EA010206D00A0DA2F56072C1F35F
:100910001301002A02DC30BC00207047440F44EA77
:10092000C104C100E01830BC00EBC25000F048B96F
:1009300030B50B46014600202022012409E021FAAF
:1009400002F59D4205D303FA02F5491B04FA02F5AC
:100950002844151EA2F10102F1DC30BD2DE9F05F43
:100960000546002092469B4688460646814640241E
:100970001BE02846414647462246FFF7F5FB534613
:100980005A46C01A914110D311461846224600F02B
:1009900016F82D1A67EB01084F4622460120002168
:1009A00000F00DF817EB00094E41201EA4F10104E0
:1009B000DFDC484631462A464346BDE8F09F202A00
:1009C00004DB203A00FA02F1002070479140C2F1A6
:1009D000200320FA03F3194390407047202A06DBD6
:1009E000CB17203A41FA02F043EAE07306E041FAFD
:1009F00002F3D040C2F120029140084319467047EB
:100A0000004870471C65000810B50446FFF7F8FF62
:100A10000068005D00F0010010BD00000268114494
:100A20001378016018467047D16004495161044948
:100A3000116200211161114600F0E0B91D0A0008A1
:100A4000090A0008426842B1016811F8013B23B16C
:100A5000521EC0E90012184670470121C160881E6D
:100A6000704742685AB1C368016843B983688B42D2
:100A700005D0491E521CC0E90012002070474FF0FB
:100A8000FF3070472DE9F05F824600780027154659
:100A90008B460AF10104B946302801D09DB113E01C
:100AA00014F8010B0127782803D0582801D045B14C
:100AB0000AE00DB1102D07D10027102514F8010B05
:100AC00002E0082500E00A250026B0460EE005FBFE
:100AD000080005FB06F1012701EB10461FFA80F81C
:100AE000B6F5803F00D3B94614F8010B294600F053
:100AF00077F90028EBDABBF1000F05D00FB1641EC7
:100B000000E05446CBF80040B9F1000F06D002F0E7
:100B100047FD02210160C81EBDE8F09F48EA06407B
:100B2000FAE700000FB4002300B589B00CA90091CA
:100B30000B996FF00042CB601E4B06931E4B079340
:100B40000423CDE901321D4A089202466B4600207B
:100B500000F06AFB09B05DF814FB70B586B006467C
:100B60004FF0FF300091CDE90101002015460C4601
:100B700004903246694604A8FFF7D4FF0246049861
:100B8000211825B108B1084600E0204628600498E5
:100B900000280DD0002A02DD0098884208D0081BEA
:100BA0000094CDE901043246694604A8FFF7BAFF74
:100BB00006B070BD450A0008630A0008090A00086B
:100BC0000029A8BF7047401C490008BF20F0010061
:100BD000704710B4B0FA80FC00FA0CF050EA01043F
:100BE00004BF10BC704749B1CCF1200421FA04F4D1
:100BF00011FA0CF118BF012121430843A3EB0C01AA
:100C0000CB1D4FEA00614FEA102042BF002010BC0C
:100C1000704700EBC35010440029A4BF10BC7047BC
:100C2000401C490008BF20F0010010BC704710B5FF
:100C3000141E73F1000408DA401C41F100019218FF
:100C40005B411A4301D120F0010010BD2DE9F04DA8
:100C500092469B4611B1B1FA81F202E0B0FA80F2FD
:100C600020329046FFF7ABFE04460F4640EA0A00EA
:100C700041EA0B0153465A46084313D0114653EA42
:100C8000010019D0C8F140025046FFF76DFA054641
:100C90000E46504659464246FFF791FE084305D09E
:100CA000012004E020463946BDE8F08D00200543D0
:100CB00046EAE0762C4337430A986305E40AA0EB42
:100CC00008000022FD0A44EA47540A3002D50020F9
:100CD0000146E9E7010510196941DDE908450019F8
:100CE0006941BDE8F04DA2E72DE9F04D00231A4619
:100CF0001B1A8A4103DB00200146BDE8F08DC1F3D9
:100D00000A52C1F3130141F480154FF0000BD107D3
:100D100002D100186D41521E0027044640F2FF1117
:100D2000384601EB620A3E468046024600204FF4F8
:100D30008011FFF719FAC2197141BB1846EB010087
:100D4000B4EB030C75EB000C04D3E41A65EB00055F
:100D500017460E46241908F101006D4180463428DB
:100D6000E3DDF91946EB0600091BA84103D24FF059
:100D7000FF32134601E0002213461BEB070046EB4F
:100D80000A51BDE8F04DFFF752BFC1F30A52C1F35B
:100D9000130140F2FF3341F480119A4202DA00203D
:100DA0000146704740F233439A42A2F2334202DCDA
:100DB0005242FFF7D9B9FFF702BE0000064C074DBB
:100DC00006E0E06840F0010394E80700984710341B
:100DD000AC42F6D3FFF7B0F9206500084065000883
:100DE0003A2800D2303820F02002412A01D3A2F163
:100DF0003700884201D34FF0FF3070472DE9F34FA1
:100E00008BB04FF0000801F10C000C464FF0010BC5
:100E100046460DF1080A0190626901210198904748
:100E2000051E2DD0252D2CD0216A8847C0B16269BE
:100E3000012101989047216A88470028F7D1411E77
:100E400062690198904700E0761CA1690B98884779
:100E5000216A88470028F7D1E1690B988847DBE7CA
:100E6000A1690B9888470746A84201D1761CD3E7B1
:100E7000E1690B9888477F1C02D1B8F1000F6FD051
:100E800046E1002762693D463946019890472A2885
:100E900004D162690121019890470125DFF884920D
:100EA0006269012101989047A0F130010A290AD214
:100EB0004F45E5DC07EB870100EB4107303FDFD40E
:100EC00045F01005ECE7E90601D46FF000476C2807
:100ED0000AD04C2814D0682815D06A280DD0742860
:100EE0001CD07A281AD01DE0626901210198904730
:100EF0006C2802D045F0040514E045F002050DE031
:100F000045F020050AE062690121019890476828B0
:100F100002D045F0080505E045F40065626901214D
:100F200001989047C4E9015765283DD019DC58283D
:100F30007AD00CDC452837D004DC252826D041287F
:100F400031D131E046282FD047282CD12CE05B2826
:100F500077D0612828D063287CD0642823D15AE038
:100F6000D0E06F2848D008DC66281DD067281BD049
:100F7000692821D06E2816D127E0702845D0732823
:100F800068D0752847D078280DD14DE0A1690B981D
:100F90008847054625283FF469AFE1690B988847E3
:100FA0006D1C3FF46AAFB3E023466A466FF0010060
:100FB0000B9900F039F99EE045F040006060A80709
:100FC00023464FF0000236D43EE0E8077FF447AFF7
:100FD0002068011D21600068290501D506701BE706
:100FE000290701D5068017E7A90703D5F117C0E93E
:100FF000006111E706600FE745F040006060A80758
:1010000023464FF0080216D41EE040F60E0125EAF2
:101010000100606016E045F040006060A8072346CC
:101020004FF00A0207D40FE045F040006060A807C7
:1010300008D5234610226FF001000B99AFF3008012
:1010400059E007E0234610226FF001000B99AFF33F
:10105000008050E04FF000094F464B46632802D015
:101060005B2806D040E0E80601D40120A0600127FB
:101070003AE062690121019890475E2805D14FF05E
:1010800001096269494601989047216939B90021EF
:101090000A46534643F82120491C0829FADBB0B31D
:1010A000216969B9C11700EBD16253110AEB8301C1
:1010B00022F01F02821A01200B68904003430B604C
:1010C00062690121019890475D28E8D1B9F1000FCC
:1010D00009D00020514651F82020D24341F8202069
:1010E000401C0828F7DB02AB224600976FF0010096
:1010F0000B99FFF77FF800280CDA401C08D1BBF1F0
:10110000000F05D04FF0FF300DB0BDE8F08FFFE7C6
:101110004046F9E7E90701D108F1010806444FF01C
:10112000000B79E6CCCCCC0C2DE9FF4F087881B0D0
:101130009946FF2805D0491C2D2804D000240023FF
:1011400008E000230BE00124F9E703EB830300EB45
:101150004303491C0878FF28F7D104B15B42002003
:101160000090147801462D2C01D02B2C04D1521C58
:101170002D2C12D00024009400251678FF2E0ED0BE
:101180000A24A0FB04C801FB0481002700FB07110F
:10119000521C16EB0C006941EFE70124EBE7994480
:1011A00050EA01020ED00024AA4D2646DFF8A8829C
:1011B00000F056F982468B46B9F1000009DAC9F110
:1011C00000071BE001980021C0E9001105B0BDE84F
:1011D000F08F074612E0F80707D022462B4630462C
:1011E0004146FFF7EDF90646884622462B46104653
:1011F0001946FFF7E5F904460D467F10002FEAD1A6
:10120000B9F1000F324643465046594602DAFFF71D
:1012100049FA01E0FFF7D4F9009A0AB181F00041E0
:10122000019AC2E90001D1E72DE9FF4F1F468DB0B9
:10123000D7E901464FF0FF382E2045464FF0000910
:101240000B90B9696D1C0E988847396A82468847A9
:101250000028F6D1BAF1FF3F0AD024F4D064002E62
:1012600011DDBAF12B0F08D0BAF12D0F0BD102E02E
:10127000404611B0ABE744F48064B9696D1C0E9828
:1012800088478246761E6946600501D52D2000E01C
:101290002B208DF8000001F1010B0DF1200809E071
:1012A000B9696D1C0E98884782460F9844F4007403
:1012B000761E0560002E02DDBAF1300FF0D00B99DA
:1012C0008A453ED144F0800406E00F99681CA9F1DC
:1012D000010944F400740860B9696D1C761E0E980B
:1012E000884782463028F0D02BE00B998A4505D1FB
:1012F000200603D444F08004761E18E0504602F025
:1013000053FD08B30DF11301761E44F400748B45B0
:1013100008D2AAF130000BF8010B200607D5A9F17D
:10132000010003E0200602D409F101008146A00576
:1013300002D50F99681C0860B9696D1C0E98884722
:101340008246002ED1DC53E0002E51DDBAF1650F4C
:1013500002D0BAF1450F4BD1A00549D5B9696D1C32
:1013600024F44074761E0E9888478246002E0CDDC9
:101370002B2804D0BAF12D0F07D144F48074B96939
:101380006D1C0E9888478246761EE00501D52D21FA
:1013900000E02B2108F8011BCDF82C8021E00DF195
:1013A0002901761E44F4007488450CD2AAF130005D
:1013B00010F0FF0088F8000002D10B99884509D988
:1013C00008F1010806E0E00501D5244801E042F2F9
:1013D0000F708146B9696D1C0E98884782460F9838
:1013E0000560002E04DD504602F0DEFC0028D6D158
:1013F000F9690E988847FF208BF8000088F80000F4
:101400000020069007904B466A4608A906A8FFF7F9
:101410008BFEA00502D46FF001002AE714F0240F20
:101420000AD0E00714D1DDE906123868031D3B60DD
:101430000068C0E900120BE0DDE90601FFF75CFA85
:101440000146E00704D13868021D3A600068016077
:1014500028460EE7000024400000F03FF1D8FFFFCF
:101460000EB540F2334202920022CDE9002213462B
:10147000FFF7ECFB03B000BD2DE9F047334C374BD1
:1014800002462568304EDFF8C890DFF8C880324F3A
:101490001C68C1F58770062A12D2DFE802F011033A
:1014A00013243345FFF78DF92D4A2E4BFFF788F8AB
:1014B00000223346FEF7DDFFFFF7D9F980B2A863BB
:1014C000BDE8F087C1F1B400FFF77BF9264A274B4E
:1014D000FFF776F800224B46FEF7CBFFFFF7C7F980
:1014E00080B2E863ECE7FFF76CF942463B46FFF752
:1014F00067F800224B46FEF7BCFFFFF7B8F980B251
:101500002064DDE70846FFF76DF942463B46FFF7EA
:1015100057F800223346FEF7ACFFFFF7A8F914494D
:1015200080B20968C863CBE70846FFF75BF9114A48
:10153000114BFFF745F800224B46FEF79AFFFFF7E5
:1015400096F980B26063BBE700804B40F801002051
:1015500000004940DA4B682FA1BDE43F880200201B
:10156000427B09ED25B4E73F398EE3388EE3F03F47
:1015700040020020721CC7711CC7F13FFEE7704794
:10158000012000F0E3B872B6FEE710B590F8211024
:101590000022022905D00421816380F82020012047
:1015A00010BD01680B6823F00E030B6001680B6827
:1015B00023F001030B6090F84030C46B012101FA65
:1015C00003F3636080F8211080F82020104610BDDE
:1015D0002DE9F05F90F821100024022903D00421A6
:1015E0008163012485E001680A6822F00E020A6026
:1015F00001680A6822F001020A603F4E3E4FB215B0
:10160000DFF8F4C0DFF8F090DFF8ECA0DFF8E8B026
:10161000DFF8E4E00168783F13011502ACF1640CD7
:10162000A9F15009AAF13C0AABF1280BAEF1140E56
:101630004FF48018B14227D9B9420ED0614512D07B
:1016400049451DD0514518D0594518D0714501D193
:10165000424615E0294EB14201D1012210E0274E49
:101660001436B14201D110220AE0244E2836B1428C
:1016700006D0224A3C32914201D11A4600E02A4665
:101680001E49091F0A602BE0B94213D0614517D0EB
:10169000494522D051451DD059451DD0714501D134
:1016A00042461AE0B14202D14FF0807215E0134E6B
:1016B000B14201D1012210E0104E1436B14201D1E5
:1016C00010220AE00D4E2836B14206D00B4A3C32B9
:1016D000914201D11A4600E02A46074980394A6002
:1016E000012180F82110002180F82010416B01B108
:1016F00088472046BDE8F09F800002400804024071
:1017000070B5044600F034F90546601C02D0044868
:101710000078044400F02CF9401BA042FAD370BDBD
:1017200010000020054801680A2901DA491C00E080
:101730000021016002A001F0EBBE000000000020CB
:10174000666C61673D25640A00000000044910B51D
:101750000A68024202D00860FFF7E4FF10BD0000F3
:10176000140401402DE9F84FDFF8C8910024A9F1D5
:10177000040B23460F2709F1040AABF1040ED1E054
:101780000125A54006EA0502AA4276D1DFF8A8C1E4
:101790004E68A6EB0C0866452BD00DDC032E34D02A
:1017A00005DC36B3012E19D0022E2FD11BE0112EED
:1017B00016D0122E2AD119E0B8F5881F19D006DCF0
:1017C000B8F5803F15D0B8F5801F1FD111E0B8F5EE
:1017D000001F0ED0B8F5041F18D10AE0CB6815E041
:1017E000CB681B1D12E0CB6808330FE0CB680C33CD
:1017F0000CE08B682BB1012B4FF0080303D045613F
:1018000004E0042302E0056100E00023FF2A01D880
:10181000064601E000F104064FEA840501D9A5F16E
:101820002005D6F8008007FA05FC28EA0C0803FA20
:1018300005F548EA0508C6F800804D68ED0070D54A
:101840003E4DAE6946F00106AE61AD6924F0030677
:1018500005F0010500953A4D06EB050CDCF8085043
:10186000A607360F07FA06F825EA0805DFF8D48040
:10187000404503D14FF0000825E052E0DFF8C88072
:10188000404502D14FF001081DE0DFF8C08040451F
:1018900002D14FF0020816E0DFF8B480404502D1D3
:1018A0004FF003080FE0DFF8AC80404502D14FF065
:1018B000040808E0DFF8A080404502D14FF0050899
:1018C00001E04FF0060808FA06F848EA0508CCF8E7
:1018D00008804D68D9F80060ED024D4601D51643E9
:1018E00000E096432E604D68DAF80060AD02554680
:1018F00001D5164300E096432E604D68DBF800608A
:10190000AD035D4601D5164300E096432E604D6859
:10191000DEF80060ED03754601D5164300E09643FE
:101920002E60641C0A681646E2407FF429AFBDE8C9
:10193000F88F000008040140000011100010024060
:101940000000014000080140000C0140001001406F
:101950000014014000180140001C0140806808404C
:1019600000D0012070470AB1016170470904FBE70C
:10197000014880687047000010000020024881681C
:10198000027811448160704710000020074810B5AC
:10199000016841F010010160032000F079F8002097
:1019A00000F006F800F024F8002010BD00200240EE
:1019B00070B50D4D04464FF47A712878B1FBF0F004
:1019C0000A490968B1FBF0F000F0E0FA48B9102CC0
:1019D00007D200222146501E00F03AF800206C6029
:1019E00070BD012070BD0000100000201C00002010
:1019F0000E4808B5816941F001018161816901F0FA
:101A000001010091C16941F08051C161C06900F0DC
:101A100080500090052000F03BF80548416821F017
:101A2000E06141F00071416008BD0000001002401B
:101A300000000140002809DB00F01F020121914055
:101A40004009800000F1E020C0F80011704700005C
:101A5000F0B40E4B1B680C46C3F30223C3F1070519
:101A6000042D00D90425191D072901D2002300E007
:101A7000DB1E012606FA05F1491E214099409E40D1
:101A8000761E16403143F0BC01F07ABD0CED00E04B
:101A9000064900F0070208684FF6FF03184040EAC5
:101AA0000220034A10430860704700000CED00E07C
:101AB0000000FA052DE9F0470F46050061D0434EBE
:101AC000306800F00700B84209D2306820F0070003
:101AD00038433060306800F00700B84251D12868C0
:101AE0003B4C810712D5400703D5606840F4E060A5
:101AF00060602878000703D5606840F4605060603B
:101B00006068A96820F0F000084360602878C0078A
:101B100028D06868012810D02168022810D08907D1
:101B200000292EDA616821F0030101436160FFF7AB
:101B30001FFF804641F288390DE021688903EFE7F5
:101B40008901EDE7FFF714FFA0EB0801494502D931
:101B50000320BDE8F0876068696800F00C00B0EB16
:101B6000810FEFD1306800F00700B8420BD9306820
:101B700020F0070038433060306800F00700B842BA
:101B800001D00120E5E72878400705D56068E968BD
:101B900020F4E060084360602878000706D560689C
:101BA000296920F4605040EAC100606000F038F814
:101BB0006168084AC1F30311515CC84006490860D6
:101BC00006480068FFF7F4FE0020C2E7002002404C
:101BD000001002401A6200081C00002014000020BF
:101BE0000448054900684968044AC1F30221515C70
:101BF000C84070471C000020001002402A62000804
:101C00000448054900684968044AC1F3C221515C8F
:101C1000C84070471C000020001002402A620008E3
:101C20000E4A51680E4801F00C03042B11D0082B0A
:101C30000FD10C48C1F38343C903C05C0AD5516876
:101C4000084AC1F34041921E515C054A5043B0FB23
:101C5000F1F070470449484370470000001002400B
:101C600000127A000A62000800093D002DE9F84FD1
:101C7000040070D02078C04DC00749D06868C0F318
:101C80008100012807D06868C0F38100022809D1CB
:101C90006868C00306D52868800339D560680028C5
:101CA000E7D035E06068B0F5803F0BD010B1B0F5FB
:101CB000A02F11D0286820F480302860286820F4F4
:101CC000802002E0286840F480302860606890B18D
:101CD000FFF74EFE06460AE0286840F480202860A0
:101CE000F0E700BFFFF744FE801B642873D8286824
:101CF0008003F7D50CE0FFF73BFE064605E000BF8A
:101D0000FFF736FE801B6428F0D828688003F7D4DC
:101D100020789A4E80074FF001094FF0000839D51E
:101D2000686810F00C0F07D06868C0F381000228C3
:101D300009D16868C00306D42868800714D52069D3
:101D4000012808D110E02069B0B1C6F80090FFF773
:101D50000FFE074605E00AE1FFF70AFEC01B022856
:101D6000C4D828688007F7D52868616920F0F80092
:101D700040EAC10028600DE0C6F80080FFF7F8FDDA
:101D8000074604E0FFF7F4FDC01B022823D82868AB
:101D90008007F7D4207800072CD57948A169D9B1FC
:101DA000C0F80090FFF7E4FD074604E0FFF7E0FD10
:101DB000C01B02280FD8686A8007F7D571484FF416
:101DC000FA510068B0FBF1F0009000BF0098411E8E
:101DD0000091FAD20EE080E0C0F80080FFF7C8FD65
:101DE000074604E0FFF7C4FDC01B022875D8686AE7
:101DF0008007F7D42078400760D5E8690027C00045
:101E000008D4E86940F08050E861E869012700F0F3
:101E1000805000905C480168C90513D4016883466E
:101E200041F480710160FFF7A3FD824606E000BF28
:101E3000FFF79EFDA0EB0A0064284ED8DBF80000F7
:101E4000C005F5D5E06801280AD008B1052813D0EF
:101E5000286A20F001002862286A20F0040002E0CD
:101E6000286A40F001002862E06841F2883B98B19E
:101E7000FFF77EFD82460BE0286A40F004002862EE
:101E8000EEE700BFFFF774FDA0EB0A0159455AD8F1
:101E9000286A8007F6D50CE0FFF76AFD824605E068
:101EA000FFF766FDA0EB0A0159454CD8286A800768
:101EB000F6D41FB1E86920F08050E861E06988B38A
:101EC0006968C1F38101022944D00228C6F8608004
:101ED00004D0FFF74DFD044638E034E0FFF748FD3D
:101EE000074604E0FFF744FDC01B02282BD82868F2
:101EF0008001F7D4206AB0F5803F05D16868A168F9
:101F000020F4003008436860D4E908010843696898
:101F100021F4741108436860C6F86090FFF728FD4B
:101F2000044606E025E000BFFFF722FD001B022863
:101F300009D828688001F7D51BE000BFFFF718FD1E
:101F4000001B022802D90320BDE8F88F2868800111
:101F5000F4D40EE00128F7D06868226A00F48031DA
:101F6000914204D1616A00F47010884201D00120CE
:101F7000EAE70020E8E700000010024000004242CB
:101F8000800442421C0000200070004010B5401E3A
:101F9000B0F1807F01D3012010BD4FF0E0246061DB
:101FA0000F21601701F0ECFA0020A06107202061EA
:101FB000002010BD10B590F83C20012A22D001224B
:101FC00080F83C20CA688C6822F4407222434C6836
:101FD00022F4806222430C6822F4006222430C69DE
:101FE00022F4805222434C6922F400522243C969F0
:101FF000002322F480420A4301684A6480F83C309E
:10200000002010BD022010BD70B590F83C20012AC0
:102010002CD0012480F83C40022280F83D20036847
:102020005A689D6822F070060A6832435A60104B65
:1020300002689A420ED00F4B9A420BD0B2F1804FF9
:1020400008D00D4B9A4205D00C4B9A4202D00C4B53
:102050009A4204D1496825F080031943916080F8C1
:102060003D40002180F83C10084670BD022070BD44
:10207000002C0140003401400004004000080040F2
:10208000000C004030B585B0002100910191029113
:1020900003910268404841490224414D824218D1CF
:1020A000886940F0400088618869694600F0400016
:1020B00004904FF42050CDE900043A480394FFF710
:1020C00051FB686820F0C00040F0E06040F0C000C4
:1020D0004DE03548B2F1804F22D0344B9A422DD199
:1020E0008A6942F004028A618A6902F00402049259
:1020F0008A6942F008028A618969039401F0080143
:1021000004914021CDE900146946FFF72BFB0094B0
:102110000194694626480394FFF724FB05B030BDBF
:102120008A6942F004028A618969039401F004011A
:1021300004910421CDE900146946EDE71D4882426F
:1021400017D1886940F0200088618869694600F0ED
:10215000200004904FF4C040CDE9000416480394D9
:10216000FFF700FB686840F0E06040F48050686072
:10217000D4E712488242D1D1886940F010008861CA
:102180008869694600F0100004904FF4C070CDE9F2
:1021900000040B480394BFE7002C014000100240EC
:1021A0000000014000180140000801400004004008
:1021B000000C0140000800400014014000340140C0
:1021C0000010014070B5044690F83C0000260D4612
:1021D00001280FD0012084F83C006AB1042A1DD0E8
:1021E000082A2FD00C2A3FD00126002084F83C007A
:1021F000304670BD022070BD206800F075FF206879
:10220000816941F0080181612068816921F0040140
:102210008161206881692A69114311E0206800F01A
:1022200093FF2068816941F40061816120688169C0
:1022300021F480618161206881692A6941EA022173
:102240008161D2E7206800F0B5FF2068C16941F0E4
:102250000801C1612068C16921F00401C1612068E1
:10226000C1692A69114311E0206800F0D7FF206896
:10227000C16941F40061C1612068C16921F48061D4
:10228000C1612068C1692A6941EA0221C161ACE7E4
:1022900010B5040003D094F83D0010B107E0012010
:1022A00010BD002084F83C00204600F01FF80220FA
:1022B00084F83D00211D206800F0C2FE012084F852
:1022C000460084F83E0084F83F0084F8400084F81B
:1022D000410084F8420084F8430084F8440084F804
:1022E000450084F83D00002010BD000008B51D4ADF
:1022F00001681D48914207D1816941F40061816103
:10230000806900F4006014E0B1F1804F0AD0174AF0
:10231000914210D1C16941F00201C161C06900F070
:10232000020006E0C16941F00101C161C06900F02D
:102330000100009008BD0E4A914207D1C16941F0E9
:102340000401C161C06900F00400F2E7094A91424A
:10235000F0D1816941F400518161806900F400503D
:10236000E7E70000002C014000100240000400409C
:10237000000800400034014010B50446022249B173
:1023800004290ED0082913D094F84100012816D052
:10239000012010BD94F83E000128F9D184F83E20B8
:1023A0000FE094F83F000128F2D184F83F2008E0C4
:1023B00094F840000128EBD184F8402001E084F833
:1023C00041200122206800F081FE13492068134A51
:1023D000884201D0904203D1436C43F400434364EC
:1023E000206888420DD090420BD0B0F1804F08D0C9
:1023F0000B49884205D00B49884202D00A498842DD
:1024000004D1816801F00701062903D0016841F079
:1024100001010160002010BD002C0140003401408A
:102420000004004000080040000C004030B50446A5
:102430000D460068002200F049FE194B41F21111CF
:1024400020688A10984202D0164B984209D1036A3C
:102450000B4206D1036A134203D1436C23F40043B9
:1024600043642068036A0B4206D1016A114203D11A
:10247000016821F00101016001203DB1042D08D067
:10248000082D09D084F84100002030BD84F83E00BA
:10249000FAE784F83F00F7E784F84000F4E700002B
:1024A000002C01400034014070477047F8B50168C6
:1024B00004460868CA684B6910F00F0F4FF000051A
:1024C00059D003F0010602F49077374365D0C10775
:1024D00005D0D10503D5616C41F00101616441076C
:1024E00005D5D90703D0616C41F002016164810711
:1024F00005D5D90703D0616C41F00401616401077F
:1025000007D502F02001314303D0616C41F008018E
:102510006164616C00293AD0800604D5900602D52A
:10252000204600F0D2FE20684069616CC0F3801044
:10253000090700D460B3204600F0A0FE206840697F
:10254000400621D52068143050E8001F21F04001DA
:1025500040E80012002AF5D1E06BA8B16D49416353
:10256000E06BFFF735F8002811D0E06B416B01B04C
:10257000BDE8F040084783060FD593060DD52046E9
:10258000BDE8F84000F0A1BE2046FFF78EFFF8BD81
:102590002046FFF78AFF6564F8BD266B2023012ED5
:1025A0007CD1C6067AD5D60678D5086848680090EA
:1025B00048694FF00206400640D5E16B0868406864
:1025C0000004000CE8D0A28D8242E5D9E08588693C
:1025D00020282DD020680C3050E8001F21F4807195
:1025E00040E80012002AF5D12068143050E8001F9E
:1025F00021F0010140E80012002AF5D120681430D2
:1026000050E8001F21F0400140E80012002AF5D1F7
:1026100084F84230256320680C3050E8001F21F018
:10262000100140E80012002AF5D1E06BFEF7ADFF83
:102630006663A08DE18D401A81B22AE0A08DE18D04
:10264000401A81B2E08D0028A6D00029A4D02268CB
:102650000C3252E8000F20F4907042E80007002F7F
:10266000F5D12068143050E8002F22F0010240E834
:102670000027002FF5D184F84230256320680C3004
:1026800050E8002F22F0100240E80023002BF5D183
:1026900066632046FFF708FFF8BDFFE705062BD568
:1026A000150629D594F841002128F5D1A068B0F588
:1026B000805F01D12069B0B1206A411C216221688C
:1026C00000784860E08C401E0004000CE084E3D1F8
:1026D0002068C16821F08001C1602068C16841F0B4
:1026E0004001C160D8E7206A0088C0F30800486054
:1026F000206A801C2062E5E74006CDD55006CBD588
:10270000CA68204622F04002CA6084F8413000F0D6
:102710002CF9C1E76D32000870B5040004D094F8BC
:102720004100002510B106E0012070BD84F8405042
:10273000204600F023F8242084F841002068C16876
:1027400021F40051C160204600F020FE206801699C
:1027500021F4904101612068416921F02A01416121
:102760002068C16841F40051C1606564202084F88C
:10277000410084F842006563002070BD70B586B0EA
:102780000024009401940294039403683248314E6B
:10279000451502210322B34226D1836943F48043C5
:1027A0008361836903F480430493836943F00403E2
:1027B00083618069CDE9005100F00400CDE9032078
:1027C000264D69462846FEF7CDFF2815CDE90004C1
:1027D000694628460294FEF7C5FF002211462520CF
:1027E000FFF736F9252031E01D4EB34230D1C369E1
:1027F00043F48023C361C36903F480230493836992
:1028000043F0200383618069039200F0200004906C
:10281000B015CDE90001134E69463046FEF7A2FF20
:10282000CDE90054694630460294FEF79BFF0E48FE
:10283000416821F0300141F0E06141F03001416038
:10284000002211462720FFF703F92720FFF7F2F8AF
:1028500006B070BD00380140001002400008014081
:1028600000480040001401400000014090F8423050
:10287000202B01D00220704721B11AB1002303633D
:1028800000F0E0BD012070470C4810B50C4B4168CA
:1028900002785A54491C41600A4808494FF0010225
:1028A00000680128084804D1FFF7E0FF0349074802
:1028B0000122BDE81040FFF7D9BF0000240000202E
:1028C000040400200800002060030020A80300206A
:1028D0002DE9F843044690F841001F4616460D4680
:1028E000202802D00220BDE8F8837DB176B1002017
:1028F0006064212084F84100FFF73AF8A6848046FE
:10290000E684A068B0F5805F02D003E00120EAE72A
:10291000206910B12E4600250EE000260CE0802133
:10292000204600F0AAFDA0B9AEB116F8010B21684F
:102930004860E08C401EE084E08C43464FF000028B
:1029400000970028EBD14FF04001204600F095FDA4
:1029500030B10320C7E735F8020BC0F30800E6E703
:10296000202084F841000020BDE77047FEE700000A
:102970002DE9F05F041EDFF8B8A02E4EDFF8B8B0E6
:102980002E4D91468846C4F1000716DD01224021F4
:102990003046FEF7E8FF002280213046FEF7E3FFD5
:1029A000002280215846FEF7DEFF01220821304632
:1029B000FEF7D9FF2868846315E0002240213046E5
:1029C000FEF7D1FF012280213046FEF7CCFF012225
:1029D00080215846FEF7C7FF002208213046FEF747
:1029E000C2FF28688763DAF80010C1F83890B8F1A0
:1029F000030F1AD018F1030F15D1012240213046E0
:102A0000FEF7B1FF002280213046FEF7ACFF002226
:102A100080215846FEF7A7FF012208213046FEF725
:102A2000A2FF28688463BDE8F09F28688763FAE7FF
:102A300018030020000C014000140140D0020020C7
:102A40002DE9F04186B000243848009401940294A6
:102A50000394816941F004018161816901F00401FD
:102A60000491816941F008018161816901F00801E7
:102A70000491816941F040018161816901F0400167
:102A80000491816941F020018161816901F0200197
:102A90000491816941F0100181618069244F00F047
:102AA000100004900022E0213846FEF75CFFDFF8BA
:102AB00084800022F8214046FEF755FF01251E487C
:102AC0000095CDE9010469461C48FEF74BFEE02065
:102AD0000226CDE90005CDE9024669463846FEF7F3
:102AE00041FEF820CDE90005CDE9024669464046A1
:102AF000FEF738FE4FF44070CDE9000469464046C9
:102B00000294FEF72FFE0320CDE9000469460C482D
:102B10000294FEF727FE022201210620FEF798FF0D
:102B20000620FEF787FF06B0BDE8F08100100240E6
:102B300000140140000C0140000021100008014079
:102B40000018014010B592B000240F941C21684673
:102B50001094FDF720FB202107A8FDF71CFB25485A
:102B60002349016040F2CF21C0E9011440F2CF7146
:102B7000C0E903148021C0E90541FFF789FB08B1D2
:102B8000FEF701FD0F940FA91A481094FFF73CFAC5
:102B900008B1FEF7F8FC6020CDE90004029403942C
:102BA000049405940422694612480694FFF70AFB30
:102BB00008B1FEF7E8FC082269460E48FFF702FB61
:102BC00008B1FEF7E0FC0794089409944FF4005014
:102BD0000A94CDE90B4007A906480E94FFF7EAF9DD
:102BE00008B1FEF7D0FC0348FFF74CFA12B010BD55
:102BF000002C0140F801002010B58AB00024079491
:102C00001C2168460894FDF7C6FA17484FF080412A
:102C1000016040F21F31C0E9011440F2CF71C0E9F8
:102C2000031480218161FFF733FB08B1FEF7ABFC91
:102C3000079407A90C480894FFF7E6F908B1FEF7D6
:102C4000A2FC6020CDE900040294082269460648EF
:102C50000494FFF7B7FA08B1FEF795FC0248FFF7B6
:102C600011FA0AB010BD00004002002010B58AB071
:102C7000002407941C2168460894FDF78CFA1B4831
:102C80001949016040F21F31C0E9011440F2CF71CF
:102C9000C0E9031480218161FFF7FAFA08B1FEF759
:102CA00072FC079407A911480894FFF7ADF908B121
:102CB000FEF769FC6020CDE9000402940022694619
:102CC0000A480494FFF77EFA08B1FEF75CFC0C2278
:102CD00069460648FFF776FA08B1FEF754FC034848
:102CE000FFF7D0F90AB010BD0004004088020020B0
:102CF00010B58AB0002407941C2168460894FDF79B
:102D00004AFA1B48194901604721C0E9011442F2FF
:102D10000F71C0E9031480218161FFF7B9FA08B18E
:102D2000FEF731FC079407A911480894FFF76CF9E6
:102D300008B1FEF728FC6020CDE9000402940422CB
:102D400069460B480494FFF73DFA08B1FEF71BFCF7
:102D5000082269460648FFF735FA08B1FEF713FC6A
:102D60000348FFF78FF90AB010BD000000080040CB
:102D7000D002002010B592B000240F941C216846A8
:102D80001094FDF708FA202107A8FDF704FA25485A
:102D9000234901604721C0E9011442F20F71C0E9E3
:102DA00003148021C0E90541FFF772FA08B1FEF76C
:102DB000EAFB0F940FA91B481094FFF725F908B1FF
:102DC000FEF7E1FB6020CDE9000402940394049433
:102DD00005940422694613480694FFF7F3F908B1F5
:102DE000FEF7D1FB082269460E48FFF7EBF908B160
:102DF000FEF7C9FB0794089409944FF400500A9415
:102E0000CDE90B4007A907480E94FFF7D3F808B1A6
:102E1000FEF7B9FB0348FFF735F912B010BD00000B
:102E200000340140180300200C4810B50A49016025
:102E30004FF4E1314160002181600C22C160C0E9A2
:102E400004128161C161FFF767FC002803D0BDE86F
:102E50001040FEF798BB10BD003801406003002011
:102E60000C4810B50A4901604FF4E131416000217E
:102E700081600C22C160C0E904128161C161FFF769
:102E80004BFC002803D0BDE81040FEF77CBB10BD12
:102E900000480040A8030020FEE7FEE7704700005E
:102EA0002DE9F05F041EDFF8BCB02F4EDFF8BC80C8
:102EB0002F4D92468946C4F1000716DD01221021EC
:102EC0003046FEF750FD002220213046FEF74BFD34
:102ED000012220214046FEF746FD002240214046C7
:102EE000FEF741FD2868C46315E00022102130463A
:102EF000FEF739FD012220213046FEF734FD002285
:102F000020214046FEF72FFD012240214046FEF7DA
:102F10002AFD2868C763DBF80010C1F83CA0B9F1AE
:102F2000030F06D019F1030F01D12868C763BDE86C
:102F3000F09F002210213046FEF715FD01222021CE
:102F40003046FEF710FD0022202146464046FEF79F
:102F50000AFD012240213046FEF705FD2868C463C2
:102F6000E5E7000018030020000C014000140140B8
:102F7000D00200207047000070B5164C002240219E
:102F80002046FEF7F0FC002280212046FEF7EBFCF5
:102F9000002210212046FEF7E6FC002220212046D8
:102FA000FEF7E1FC0C4D002280212846FEF7DBFCF9
:102FB000002208212046FEF7D6FC002220212846C8
:102FC000FEF7D1FC2846BDE8704000224021FEF704
:102FD000CABC0000000C014000140140FEF7CEBC4A
:102FE00030B58FB028216846FDF7D5F814210AA81E
:102FF000FDF7D1F801210804CDE900100024029466
:1030000002250491CDE907504FF4E010099068467D
:10301000FEF72CFE08B172B6FEE70F20CDE90A05D7
:103020004FF48060CDE90C4002210AA80E94FEF70F
:1030300041FD002801D072B6FEE70FB030BD7047E9
:10304000F0B502681C4B1D4D1D4E1E4F1E4C4FF01F
:10305000804C984209D0A04207D0604505D0A842D4
:1030600003D0B04201D0B84204D122F0700E4A68B9
:1030700042EA0E02984209D0A04207D0604505D02E
:10308000A84203D0B04201D0B84203D122F4407527
:10309000CA682A434D6922F080022A4302608A6886
:1030A000C2620A688262984201D0A04201D10969D5
:1030B000016301214161F0BD002C0140000400408A
:1030C00000080040000C00400034014010B501F041
:1030D0001F030121046A99408C430462016A9A40EB
:1030E0001143016210BD0000F0B5036A026A22F0CC
:1030F0000102026242688469124E24F073050C6872
:103100002C4323F002058B682B430D4DA84201D0C0
:10311000B04205D123F00807CB683B4323F00403FA
:10312000A84201D0B04205D14D6922F44072154346
:103130008A692A4342608461496841630362F0BD41
:10314000002C014000340140F0B5026A036A23F00C
:1031500010030362436884690D6824F4E64444EA7A
:1031600005248D6822F0200242EA05120F4D104E10
:10317000A84201D0B04206D1CF6822F0800242EAD4
:10318000071222F04002A84201D0B04207D14D6997
:1031900023F4406343EA85038D6943EA8503436072
:1031A0008461496881630262F0BD0000002C014027
:1031B00000340140F0B5026A036A23F480730362AD
:1031C0004368C46922F4007224F073050C68124E3F
:1031D0002C438D6842EA05220E4DA84201D0B04230
:1031E00006D1CF6822F4006242EA072222F480620C
:1031F000A84201D0B04207D14D6923F4405343EABD
:1032000005138D6943EA05134360C4614968C163CE
:103210000262F0BD002C01400034014030B5046A68
:10322000026A22F4805202624268C3690D6823F484
:10323000E64343EA05238D6824F4005444EA053448
:10324000084DA84202D0084DA84204D14D6922F48D
:10325000804242EA85124260C361496801640462A7
:1032600030BD0000002C01400034014010B5406A20
:103270000021C185C184FFF718F910BD01680C3128
:1032800051E8002F22F4907241E80023002BF5D181
:103290000168143151E8002F22F0010241E80023B7
:1032A000002BF5D1016B012909D101680C3151E8DE
:1032B000002F22F0100241E80023002BF5D120213D
:1032C00080F8421000210163704708B590F8421061
:1032D000222901D0022008BD82684FF480539A420F
:1032E00001D1016921B1816A9A421BD04AB10AE039
:1032F0000268816A5268C2F308020A80816A891CE6
:1033000008E0026972B10268526802F07F020A7036
:10331000816A491C8162C18D491E0904090CC1855D
:1033200003D01BE002685268F1E70168CA6822F026
:103330002002CA600168CA6822F48072CA6001680B
:103340004A6922F001024A61202180F842100021DE
:103350004163026B012A03D0FFF796FA002008BDF3
:10336000016301680C3151E8002F22F0100241E89E
:103370000023002BF5D101680A68D20602D50A683D
:1033800049680091818DFFF78FF8E7E770B5044633
:1033900000680169E26821F440511143016121692B
:1033A000A0680843616908432168CA6841F20C6358
:1033B0009A430243CA6020684169A26921F44071BE
:1033C000114341611E492068884202D1FEF718FC72
:1033D00001E0FEF705FC00EBC00101EB00126068A4
:1033E00064218000B2FBF0F3B3FBF1F36FF0180639
:1033F0007343B2FBF0F5B2FBF0F605EB8305322325
:1034000003EB0515B5FBF1F5B6FBF1F605F0F0059C
:1034100005EB0615B2FBF0F6B2FBF0F0B0FBF1F0F5
:103420006FF01802504306EB800003EB0010B0FB76
:10343000F1F0216800F00F002844886070BD0000A2
:103440000038014081628285C285002141642221C9
:1034500080F84210016921B10168CA6842F48072A3
:10346000CA6001684A6942F001024A610068C168A5
:1034700041F02001C160002070472DE9F0419846DD
:1034800017460E460446069D27E0681C25D02DB140
:10349000FEF76EFAA0EB0800A8421ED920680C3097
:1034A00050E8001F21F4D07140E80012002AF5D145
:1034B0002068143050E8001F21F0010140E800129C
:1034C000002AF5D1202084F8410084F84200002031
:1034D00084F840000320BDE8F0812068006836EAE7
:1034E000000004D00020B842CFD00020F3E7012034
:1034F000F9E700000148FEF7D9BF00006003002093
:103500000148FEF7D3BF0000A8030020FEE700003B
:103510000FB4054B10B503A9044A029800F04CFC07
:1035200010BC5DF814FB00001952000834000020A4
:103530000FB4084B10B504A902AA039800F03CFC94
:10354000044602A9002001F027F8204610BC5DF8CF
:1035500014FB000099450008490050EAC12018BF3B
:1035600004204A0D18BF40F0010040F2FF72B2EB98
:10357000515F08BF40F00200012808BF05207047D6
:103580000907090E002804DB00F1E02080F8001490
:10359000704700F00F0000F1E02080F8141D704724
:1035A00000487047380000202DE9F74F144694B0CA
:1035B0000021C4E902111599079121F00045C9497C
:1035C0008D4206DC1599C4E9000117B00020BDE862
:1035D000F08FC549DFF814A3A9423CDD0799C44E1A
:1035E0000029C44FC44A1599534619DDFCF7E2FF80
:1035F000554506D0C14AC24BFCF7DCFFC4E90001C7
:103600000AE04FF0D352BE4BFCF7D4FF32463B46A4
:10361000FCF7D0FFC4E9000117B00120BDE8F08F2E
:10362000FCF727FF554506D0B44AB54BFCF721FF00
:10363000C4E900010AE04FF0D352B14BFCF719FF87
:1036400032463B46FCF715FFC4E9000117B04FF0C6
:10365000FF30BDE8F08FAB49A942159978DB21F026
:10366000004183468846A84AA84BFCF7A9FF0022E0
:10367000A74BFCF7FEFEFDF7DBF80990FDF7A1F87C
:1036800006460F469C4A5346FCF79AFF43465A4665
:10369000FCF793FF80468A46984A994B3046394654
:1036A000FCF78EFF2A0D01250B9242465346FCF78C
:1036B00084FF032DC4E9000139D00B98C1F30A51EE
:1036C000401A05EB45111139814230DA9148C34661
:1036D000784400EB0510CDF80CA00C90D0E9002345
:1036E00030463946FCF76CFF02460B4604910690C3
:1036F00058460399FCF75EFF80468A4602460B4611
:1037000058460399FCF756FF049B069AFCF752FFB4
:1037100083460C9803913946D0E902233046FCF7E2
:103720004FFF5A46039BFCF745FF6D1CBDE707980A
:103730000028A2BF099817B0BDE8F08F616881F03A
:1037400000416160099817B04042BDE8F08FFFE783
:1037500084461598C1F31301C0F30A50A0F2F53066
:103760004FEA601800F01F06C6F1200013900020F9
:103770000690079041F4801E05206D4676B1664A9A
:1037800008EB00017A4452F8213002EB8101B3408A
:103790004A68139922FA01F1194305E05F4908EBE1
:1037A0000002794451F82210A1FB0E27A1FB0C1353
:1037B0001A449A4234BF0123002303EB070A05EBA6
:1037C0008003D3E901B70F448F4234BF01210021A8
:1037D00093448B4411B1934502D903E0934501D240
:1037E000012100E00021C3E901B7514445F8201050
:1037F000011EA0F10100C1DC0298059F00F10050FC
:10380000800F12900298DDE903568000FCF7D9FF83
:10381000834628460D91FCF7E5FF6FF01D02FCF78B
:10382000B0FFCDE90E013046FCF7DCFF6FF03D0242
:10383000FCF7A7FF80468A463846FCF7D3FF6FF0B7
:103840005D02FCF79EFF0746424653461191FCF786
:1038500010FEDDE90E23FCF70CFE5A460D9BFCF72B
:1038600008FE00250E465A4628460D9BFCF7A2FE90
:10387000DDE90E23FCF79EFE42465346FCF79AFE16
:103880003A46119BFCF799FEDFF898A0244A53466C
:10389000FCF796FE07468846234A244B31462846C5
:1038A000FCF78EFE3A464346FCF7E3FD07468846A2
:1038B0004FF0A842534631462846FCF781FE3A466F
:1038C0004346FCF7D6FD159A12F0004F04D0129A29
:1038D00081F0004152421292C4E90001129817B0DF
:1038E000BDE8F08FFB21E93F7CD90240FB21F93F85
:1038F0007370032E8A19A33B000040543163621A8F
:1039000061B4D03DFB21394183C8C96D305FE43FCC
:103910000000E03FD42C0000502C0000322C0000AE
:10392000182D4454FB21F93D3326A611460B113CBA
:103930002DE9FF4D21F0004807460C46B8F1795FAC
:1039400008DAFCF775FF002801BF0020324904B0F7
:10395000BDE8F08D3A46234610461946FCF730FE86
:10396000054602462D480E460B460621784400F0D7
:103970005DF82A463346FCF723FEDDE90223824642
:103980008B4638462146FCF71BFE04460F4652463E
:103990005B4628463146FCF713FE22463B46FCF7C1
:1039A00009FE07468A464FF0FF3228463146FCF7AB
:1039B000E8FE1B4A90450ADA3A465346FCF7FAFD00
:1039C00004B00022BDE8F04D134BFCF7F6BD154ADC
:1039D0004245A8BFA8F500154FF00004B8BF124D2E
:1039E00022462B46FCF7E6FD0646884622462B4635
:1039F00000200949FCF7DEFD04460D463A465346D1
:103A000030464146FCF7D6FD04B022462B46BDE8C1
:103A1000F04DFCF7D2BD00000000F03F002A00008E
:103A20003333D33F0000E93F0000D23F2DE9F0419E
:103A30004F1E00EBC7010446D1E9000115461E46A2
:103A400037F006020DD02A463346FCF7B9FD7F1E3B
:103A500004EBC703D3E90023FCF70BFD37F00602A4
:103A6000F1D1022F25D0042F13D0062F18BFBDE8A7
:103A7000F0812A463346FCF7A3FDD4E90A23FCF77C
:103A8000F8FC2A463346FCF79BFDD4E90823FCF7F3
:103A9000F0FC2A463346FCF793FDD4E90623FCF7F5
:103AA000E8FC2A463346FCF78BFDD4E90423FCF7F7
:103AB000E0FC2A463346FCF783FDD4E90223FCF7F9
:103AC000D8FC2A463346FCF77BFDD4E90023BDE849
:103AD000F041FCF7CEBC00002DE9FF4D054621F07A
:103AE000004084B00C46B0F1795F0BDA2846FFF74E
:103AF00033FD042808BF00F071F8284608B02146BD
:103B0000BDE8F08D2A460B461046FCF759FD0646E7
:103B10000F462A462346FCF753FD804626488A4630
:103B200032463B4605217844FFF780FF83461098D4
:103B3000029160B3214A224B40465146FCF740FDBA
:103B4000CDE900015A4640465146029BFCF738FD3C
:103B500082468846DDE906014FF0FF32FCF711FE90
:103B600052464346FCF726FD32463B46FCF728FD0D
:103B7000DDE90623FCF71EFDDDE90023FCF71AFD55
:103B800008B02A462346BDE8F04DFCF716BD0B46AB
:103B90005A4630463946FCF713FD084A084BFCF7F5
:103BA00068FC42465346FCF70BFD08B02A46234604
:103BB000BDE8F04DFCF75DBC462900004955555560
:103BC0005555C5BF0122FCF7DCBDFCF752BC0022F5
:103BD000134610461146FCF765BD0000024A00205E
:103BE0001107FCF7CEBD000001FDFFFF0148006892
:103BF000704700003800002002E008C8121F08C10A
:103C0000002AFAD170477047002001E001C1121F5D
:103C1000002AFBD17047000001490860704700008E
:103C2000380000202DE9FF5F82B00021DDE904307B
:103C3000020DDDF840B0034318D044F61050A2F254
:103C4000FF3242431514119801281FD0A5EB0B0039
:103C5000401C5FEA000A4FF000064E4FDFF8389133
:103C6000B046504615D5CAF1000413E0119801245E
:103C70004AA3012801D16FEA0B010298119AC0E909
:103C80000031C0E9024206B0BDE8F09FCBF1000070
:103C9000DFE704460021404A491842EB0450CDE9D1
:103CA000001012E0E00707D032463B464046494646
:103CB000FCF786FC8046894632463B46104619464C
:103CC000FCF77EFC06460F466410002CEAD1DDE9C5
:103CD0000401DDE90023BAF1000F06DAFCF770FCFD
:103CE00042464B46FCF76CFC05E0FCF7DBFC424629
:103CF0004B46FCF7D7FC04460E460022284BFCF747
:103D0000E3FD03D84FF0FF30014607E00022254BCA
:103D100020463146FCF7ADFBFDF737F8102409E0EB
:103D2000002C0ADB0A220023FCF718FE039B30322A
:103D30001A55641E50EA0102F2D1641C039AC4F1C0
:103D400011031444119A012A03D0012208430DD112
:103D50000AE0084304D000204FF0110B119072E7E5
:103D6000A3EB0B056D1E0DE05B4504DD4FF000027B
:103D700005F1010504E003DA4FF00002A5F10105A9
:103D8000002AECD002981199C0E90231C0E900453F
:103D900079E70000000014400000F03F3000000010
:103DA0000000F0430000E03F30380A2801D2012033
:103DB00070470020704700002DE9FF4F95B09B46EB
:103DC0008946064600250FE2252877D1002427469C
:103DD000F84A0121059400E0044316F8013F203B16
:103DE00001FA03F01042F7D130782A2811D06FF091
:103DF0002F033078A0F13002092A16D8059A44F032
:103E0000020402EB820203EB42021044761C05908E
:103E1000EFE759F8042B0592002A03DA504244F4E4
:103E20000054059044F00204761C30782E2816D1F8
:103E300016F8010F44F004042A280DD06FF02F0269
:103E40003078A0F13003092B09D807EB870302EB88
:103E50004303C718761CF3E759F8047B761C3078C7
:103E60006C280FD006DC4C2817D068280DD06A28A3
:103E700014D104E0742810D07A280FD10DE044F456
:103E800000140AE044F4801401E044F44014727811
:103E9000824202D104F58014761C761C30786628A4
:103EA0000BD013DC582877D009DC002875D04528C2
:103EB000F6D04628F4D047281AD19DE118E06328AF
:103EC00035D0642879D0652812D195E1702873D057
:103ED00008DC6728F1D069286FD06E280DD06F28D4
:103EE00006D1B5E073282CD0752875D0782874D009
:103EF0005A46179990476D1C75E1C4F30250022889
:103F000009D003280DD0D9F8001004280DD00D6079
:103F100009F1040967E1D9F80010EA17C1E9005274
:103F2000F6E7D9F800100D80F2E70D70F0E719F808
:103F3000041B8DF8001000208DF80100EA460120D6
:103F400003E059F804AB4FF0FF3061074FF0000178
:103F500002D40DE008F101018846B9420FDA80452C
:103F6000F8DB1AF808100029F4D108E008F1010183
:103F700088468142FADB1AF808100029F6D1059824
:103F80005B46A0EB080721463846179A00F094FAE2
:103F9000284400EB080507E04DE029E10DE01AF8A0
:103FA000010B5A4617999047B8F10108F7D25B46C2
:103FB00021463846179A13E142E00A220092C4F3E0
:103FC00002524FF0000A022A08D059F804CB032A03
:103FD0004FEAEC710AD00DE029E02AE009F107016F
:103FE00021F00702F2E802C1914609E00FFA8CFCC9
:103FF0004FEAEC71042A03D14FFA8CFC4FEAEC71C2
:10400000002907DA0A460021DCF1000C61EB02010D
:104010002D2202E0220504D52B228DF80420012256
:1040200003E0E20701D02022F7E7904659E00A2199
:1040300002E010220DE010214FF0000A00910BE089
:1040400010224FF0000A44F004040827009203E015
:1040500008224FF0000A0092C4F30252022A05D04F
:1040600059F804CB0021032A08D009E009F107011F
:1040700021F00702F2E802C1914605E01FFA8CFC2C
:10408000042A01D10CF0FF0C4FF00008220728D5BC
:10409000702806D0009B83F0100353EA0A0305D072
:1040A0000EE040228DF80420012208E05CEA0102C3
:1040B00006D030228DF804208DF8050002229046AB
:1040C000009B83F0080353EA0A030AD15CEA010269
:1040D00001D1620705D530228DF804204FF0010888
:1040E0007F1E582804D034A003900EA802900DE043
:1040F00036A0F9E753466046009AFCF72FFC844649
:104100000398825C0298401E029002705CEA0100F3
:10411000F0D1029806A9081A00F1200A600702D51A
:1041200024F4803400E00127574502DDA7EB0A00A4
:1041300000E0002000EB0A01009005984144401A7D
:104140000590E00306D45B462146179A059800F0D7
:10415000B3F90544002706E001A85A46C05D179947
:1041600090476D1C7F1C4745F6DBE0030CD55B4692
:104170002146179A059800F09FF9054404E0302085
:104180005A46179990476D1C0099481E00900029C7
:10419000F5DC08E0029802995A460078491C029121
:1041A000179990476D1CBAF10001AAF1010AF1DCE0
:1041B00065E10000092801003031323334353637EB
:1041C0003839616263646566000000003031323363
:1041D0003435363738394142434445460000000003
:1041E00000F058F90544761C307800287FF4ECADD7
:1041F00019B02846BDE8F08F620700D4062709F100
:10420000070222F0070CFCE80223E14603F0004815
:104210005FEA080C02D00FF2702C0DE05FEA045C3C
:1042200002D50FF2682C07E05FEAC47C02D00FF2DF
:10423000602C01E0AFF2700C4FF0FF3823F0004328
:10424000CDF850C065280CD006DC452809D046289A
:104250001DD047283DD13DE0662818D067287ED183
:1042600038E00021112F01DB112000E0781CCDE99E
:10427000000106A90EA8FFF7D5FCDDE90F010E9A93
:1042800003910021009207F1010A04914DE04FF0E3
:1042900000400097CDE9011006A90EA8FFF7C2FC67
:1042A000DDE90F0203920E9B11990022DDF80CA0AC
:1042B0000093049211B9791C00EB010AB7EB0A00D4
:1042C00004D4C0F1FF3007F1010A0490AAEB070003
:1042D000019044E0012F00DA01270021112F01DDB8
:1042E000112000E03846CDE9000106A90EA8FFF72D
:1042F00099FCDDE90F010E9A0391002104910092CF
:10430000BA4621070CD40399514500DA8A46BAF11E
:10431000010F05DD009AAAF10101515C302908D096
:10432000B84202DA10F1040F06DA0121CDE90110DA
:1043300015E0AAF10101E9E7002805DC0499014430
:104340000491AAEB000102E0411C514500DD8A46C0
:104350000499401A401C01904FF000400290200741
:1043600004D40198504501DBCDF8048000208DF87D
:104370004F0002980DF14F07B0F1004F25D02B20D0
:104380000E9002984FF0020800280CDA404202908A
:104390002D200E9007E00A210298FCF7C9FA30316F
:1043A000029007F8011DB8F10001A8F10108F2DC44
:1043B00002980028EFD1791E0E980870307800F02E
:1043C000200040F0450007F8020D12A8C01B00F1C4
:1043D00007081498007800B1012000EB0A01019849
:1043E00001EBE07105984144401A401E0590E0033E
:1043F00006D45B462146179A059800F05DF80544FF
:104400001498007818B15A46179990476D1CE0032C
:1044100024D55B462146179A059800F04DF80544CF
:104420001CE00498002807DBDDE90301884203DD76
:104430000098405C179901E0179930205A46904740
:10444000049805F10105401C04900198401E01905C
:1044500004D12E205A46179990476D1CBAF10001DD
:10446000AAF1010ADDDC05E017F8010B5A4617999D
:1044700090476D1CB8F10001A8F10108F4DC5B461F
:104480002146179A0598ABE62D0000002B0000008E
:10449000200000002DE9F041044600251E46174685
:1044A000880404D405E039462020B0476D1C641E02
:1044B000F9D52846BDE8F0812DE9F04104460025F4
:1044C0001E469046C80301D5302700E02027880407
:1044D00004D505E041463846B0476D1C641EF9D549
:1044E0002846BDE8F08100002DE9F047054601F0BF
:1044F00087FD254C254E264F4FF080494FF0404810
:104500001AE000BF01F07CFD01F0A0FB214800682B
:1045100002282AD1206810F0FF4F0DD101F08CF84D
:10452000A5EB000A01F088F841195246284601F02F
:10453000B1F83220FDF7E4F82068B04201D1012142
:1045400000E00021B84201D1012200E00022114325
:10455000484501D1012200E000221143404501D12C
:10456000012000E000200143CCD101F065F82C1AB5
:1045700001F062F841192246284601F08BF8BDE8A7
:10458000F0473220FDF7BCB82C000020000040406E
:10459000000040C0000000200A68531C0B6010702F
:1045A000704700002DE9F04D0546DFF8388221F014
:1045B00000408D4F82B00C46404520DBA0EB080147
:1045C00029430BD08949884201DC10D17DB102B06A
:1045D00028462146BDE8F04DFFF7F4BA002CC7BFCE
:1045E000002001468248394602B0BDE8F08D012026
:1045F000FFF712FB02B0BDE8F04DFFF7E8BA7D49C6
:10460000884244DA7C498142A1BF79487B4902B0A3
:10461000BDE8F08D2A46234610461946FBF7D0FF29
:104620008346024676480E460B4606217844FFF73D
:10463000FDF95A463346FBF7C3FF074671488A46E1
:104640005A46334604217844FFF7F0F95A46334678
:10465000FBF7B6FF00224346FBF70BFF02460B4673
:1046600038465146FCF71EF82A462346FBF7A8FFBA
:10467000654A664BFBF7A1FF2A462346FBF79DFFE1
:1046800002B05B4ABDE8F04D5C4BFBF796BF002CD7
:104690004FF000024BDA4646434628462146FBF7D8
:1046A000E8FE4FF0FF32FCF76CF80446024658482B
:1046B0000D460B4606217844FFF7B8F922462B46F3
:1046C000FBF77EFF804653488A4622462B4604214C
:1046D0007844FFF7ABF922462B46FBF771FF002227
:1046E0003346FBF7C6FE06468B462046294601F0B8
:1046F00003FD04460D4632465B4640465146FBF7F5
:10470000D1FF22462B46FBF75BFF3F4A3F4BFBF7AF
:1047100051FF22462B46FBF7ACFE0122FCF731F895
:1047200002B03B46BDE8F04D314AFBF746BF2D4B8A
:1047300028462146FBF741FF4FF0FF32FCF721F8F6
:1047400005460E4601F0D8FC00270C4680463A4646
:104750000B46FBF78EFE82468B463A4623461046B2
:104760001946FBF72DFF2A463346FBF726FF524634
:104770005B46FBF797FF824627488B462A4633461F
:1047800006217844FFF752F92A463346FBF718FF13
:10479000CDE9000121482A46334604217844FFF739
:1047A00045F92A463346FBF70BFF00220D4BFBF77A
:1047B00060FE02460B46DDE90001FBF773FF42464F
:1047C0002346FBF7FDFE52465B46FBF752FE3A4698
:1047D0002346FBF74EFE02B00122BDE8F04DFBF789
:1047E000D0BF00000000F03FFB2109400000F07F37
:1047F000182D44540000E03F0000603CFB21F93FCD
:10480000081C00001E1C0000075C143326A6913C07
:104810007E1B0000941B0000B21A0000C81A0000A2
:104820002DE9F05F0124A046274626462546DFF8FD
:1048300044B1DFF844917AE0DBF80030D9F8002089
:1048400059464846934202DD02F1010202E003DAD2
:10485000A2F10102026001E04FF000044B684268DF
:10486000934202DD02F1010202E003DAA2F1010249
:10487000426001E04FF000088B688268934202DDDD
:1048800002F1010202E003DAA2F10102826001E01A
:104890004FF00007CB68C268934202DD02F10102CB
:1048A00002E003DAA2F10102C26001E04FF000066B
:1048B000DBF8102001698A4202DD01F1010102E00A
:1048C00003DAA1F10101016101E04FF00005B9F83F
:1048D00000004FF0140A81B24FF00100FCF7CCFD4C
:1048E0005046FCF70DFFB9F8040081B20220FCF736
:1048F000C3FD5046FCF704FFB9F8080081B203205D
:10490000FCF7BAFD5046FCF7FBFEB9F80C0081B28B
:104910000420FCF7B1FD5046FCF7F2FEB9F8100098
:1049200081B20520FCF7A8FD5046FCF7E9FE44EAF9
:1049300008003843304328437FF47EAF5D46DBF800
:104940000000FBF735FF0D4C60656868FBF730FF32
:10495000A065A868FBF72CFFE065E868FBF728FF77
:1049600020662068E06060682061A0686061BDE842
:10497000F09F00003C000020F003002050000020C9
:1049800070B51C4900201C4C1C4A086054F82030AB
:1049900042F82030401C0528F8DB0860208881B2EE
:1049A0000120FCF769FD4FF4FA752846FCF7A8FED4
:1049B000A08881B20220FCF75FFD2846FCF7A0FE2C
:1049C000208981B20320FCF757FD2846FCF798FEAA
:1049D000A08981B20420FCF74FFD2846FCF790FE29
:1049E000208A81B20520FCF747FD2846BDE87040CB
:1049F000FCF786BE200000203C000020F0030020D1
:104A00002DE9F04D8D4F21F0004A86B005460C4649
:104A1000BA452ADBAAEB070028430AD0884882451A
:104A200001DC1AD1CDB106B02846BDE8F04DFFF744
:104A3000C9B8844A844B2846FBF7C2FD07460E4698
:104A4000824A834B28462146FBF7BAFD06B03A4618
:104A50003346BDE8F04DFBF70CBD0120FFF7DCF855
:104A600006B0BDE8F04DFFF7B2B87A48824542DAA9
:104A7000BAF1795F0BDA2846FEF76EFD042808BF0D
:104A8000FFF7ACF8284606B02146BDE8F08D2A466F
:104A90000B461046FBF794FD834602466E480E46D1
:104AA0000B4606217844FEF7C1FF5A463346FBF712
:104AB00087FD804669488A465A4633460421784431
:104AC000FEF7B4FF5A463346FBF77AFD00223B4619
:104AD000FBF7CFFC02460B4640465146FBF7E2FD92
:104AE0002A462346FBF76CFD06B02A462346BDE85E
:104AF000F04DFBF7BEBC284624F0004100223D46A5
:104B00003B46FBF75AFD4FF0FF32FBF73AFE0646F5
:104B1000024653480F460B4606217844FEF786FFAF
:104B200032463B46FBF74CFDCDE900014D4832468D
:104B30003B4604217844FEF779FF32463B46FBF7BB
:104B40003FFD00222B46FBF794FC83460291304642
:104B5000394601F0D1FA804643480D46504517DCEE
:104B6000DDE900015A46029BFBF79CFD42462B46BD
:104B7000FBF726FD42462B46FBF77BFC0122FBF7A9
:104B800000FE304A304BFBF715FD304A304B4CE00D
:104B90004FF0000A52460B464046FBF76AFCCDE94F
:104BA000031052462B4610461946FBF709FD3246C4
:104BB0003B46FBF702FDDDE90332FBF773FD0646DA
:104BC0000F46DDE900015A46029BFBF76BFD834669
:104BD0000091012230463946FBF7D3FD194A1A4BA2
:104BE000FBF7EBFC06460F46012240462946FBF741
:104BF000C8FD5A46009BFBF7E3FC32463B46FBF7F9
:104C0000D9FC06460F46012250462946FBF7B9FD5E
:104C10000E4DDFF858802A464346FBF7CEFC32465D
:104C20003B46FBF7CAFC2A464346FBF7C6FC002C72
:104C3000D8BF81F0004106B0BDE8F08D0000F03F24
:104C40000000F07F075C143326A6913C182D4454D5
:104C5000FB21F93F0000E03FE0170000F6170000DD
:104C60006A170000801700003333EF3FFB21E93F54
:104C70002DE9F84F04460D4621F00040009173499C
:104C8000814211DC7249884201DC06D12CB12046F8
:104C90002946BDE8F84FFEF795BF6E48002DCCBF02
:104CA0006D496E49BDE8F88F6D49814211DD6D494E
:104CB0008142D8BF4FF0FF366DDD20462946FEF712
:104CC0004BFC042808BFFEF789FF20462946BDE8B3
:104CD000F88F6549654F25F00045814233DD644911
:104CE000814219DD002632464FF080432046294696
:104CF000FBF7BFFB80468A46012220462946FBF788
:104D000040FD00223B46FBF755FC42465346FBF76D
:104D1000C9FC04460D463EE001260022BA463B4649
:104D200020462946FBF7A5FB80460F460022534646
:104D300020462946FBF73EFC42463B46FBF7B2FCC9
:104D400004460D4627E04B4981421BDDDFF828A1D0
:104D500002260022534620462946FBF731FC00225A
:104D60003B46FBF786FB80460F4600225346204613
:104D70002946FBF71FFC42463B46FBF793FC0446E3
:104D80000D4608E0032622462B4600203B49FBF750
:104D900089FC04460D4622462B4610461946FBF771
:104DA0000FFC8B46824602460B46FBF709FC074682
:104DB0000246334888460B4606217844FEF736FE05
:104DC00052465B46FBF7FCFB82462E488B463A4632
:104DD000434605217844FEF729FE3A464346FBF751
:104DE000EFFB02460B46002E504659460CDAFBF705
:104DF00040FB22462B46FBF7E3FB01B022462B4645
:104E0000BDE8F04FFBF7D9BBFBF733FB22462B463F
:104E1000FBF7D6FB1C4A7A4402EBC603D3E9002316
:104E2000FBF7C8FB22462B46FBF7C4FB174A7A4424
:104E300002EBC603D3E90023FBF7BFFB009A002A6D
:104E4000B8BF81F00041BDE8F88F000000001044B9
:104E50000000F07F182D4454FB21F93FFB21F9BFDE
:104E60000000DC3F0000203E0000F33F0000F03F68
:104E70000000E63F008003400000F83F0000F0BF64
:104E80008215000040150000DE140000A61400008A
:104E90002DE9F04D9446CCF1000423F000464CEA95
:104EA0000404524F46EAD4749A46884621F00042E0
:104EB000BC4206D8454240EA050442EAD474BC42EA
:104EC00004D9BDE8F04D6246FEF77FBEAAF1405519
:104ED000A5F17F6555EA0C040BD0022404EAAA74FC
:104EE000434DDFF810E144EAD87452EA000B04D0D5
:104EF0000CE0BDE8F04DFFF7BBBE002C14BF012C49
:104F0000BDE8F08D022C30D0032C32D056EA0C0BC9
:104F10000AD0BE4220D1BA4209D126F0804622F002
:104F200080423346114617E000291ADB25E0DFF8FE
:104F3000C8B0FB44002C04BFDBE90001BDE8F08DE4
:104F4000012C02BFDBE9000181F00041BDE8F08DDA
:104F5000022C0AD0032C0CD0BA4212D1B8F1000FA7
:104F60000BDA23482549BDE8F08D28462449BDE8E1
:104F7000F08D28467146BDE8F08D1D482149BDE8F9
:104F8000F08D921B12153C2AC4BF19481D490EDC36
:104F9000BAF1000FBEBF12F13C0F0020014606DB44
:104FA0006246FBF77FFB21F00041FFF761FE002C1A
:104FB00008BFBDE8F08D012C04BF81F00041BDE8C1
:104FC000F08D114A114B022C07D0FBF7F3FA2A4659
:104FD000BDE8F04D0A4BFBF7EDBAFBF7EBFA2A46BA
:104FE000BDE8F04D064BFBF7E8BA00000000F07F8B
:104FF000182D4454FB2109C06A140000FB21F9BF9D
:10500000FB210940FB21F93F075C143326A6A13C94
:1050100030B583B00446FEF7E9FD05460020CDE932
:105020000000024621466846FBF797FD2846FEF73A
:10503000F3FDDDE9000103B030BD00002DE9F041D2
:105040001B4E0446002240213046FCF78CFC012216
:1050500080213046FCF787FC164D286884630022C7
:1050600010213046FCF77FFC012220213046FCF75E
:105070007AFC2868C463104F012280213846FCF76F
:1050800072FC002208213046FCF76DFC0B4D2868AD
:105090008463002220213846FCF765FC0122402170
:1050A0003846FCF760FC2868C463BDE8F081000066
:1050B000000C01401803002000140140D002002021
:1050C00000B5244B21F0004287B09A42DCBF002299
:1050D000134629DD204B9A4208D140B94FF0010018
:1050E000FEF79AFDFEF773FD07B000BD03DBFEF788
:1050F00069FD07B000BD02AAFEF756FA10F00301E1
:1051000004BF0DF1080C9CE80F000DD0012001290F
:105110000ED0022914D00DF1080C00909CE80F006D
:10512000FEF7DAFC07B000BDFEF702FC07B000BDD9
:105130000DF1080C00909CE80F00FEF7CDFC05E097
:105140000DF1080C9CE80F00FEF7F2FB07B081F0B0
:10515000004100BDFB21E93F0000F07F10B50421B4
:105160000A48FDF709F908210848FDF705F90C215F
:105170000748FDF701F908210648FDF7FDF8BDE8ED
:10518000104000210248FDF7F7B80000F8010020A8
:10519000880200204002002010B504210A48FDF7D3
:1051A00045F908210848FDF741F90C210748FDF7AA
:1051B0003DF908210648FDF739F9BDE81040002106
:1051C0000248FDF733B90000F801002088020020F2
:1051D0004002002038B50A4C08B1492000E06420A4
:1051E0002061208A80B20090A08983B2208982B297
:1051F000A08881B2208880B2FFF712FB38BD000082
:105200003C00002000EB800149000028084601DD39
:1052100000F03EB8FFF712BF13B54FF0FF33012285
:1052200069460248FDF754FB00981CBD600300204E
:1052300038B54FF48F75F1220021284600F0B4FFF5
:10524000124C87202060218A89B20091A1898BB2FB
:1052500021898AB2A18889B2FFF7E2FADC23E360F0
:10526000208A80B20090208982B2A08881B22088F2
:1052700080B2FFF7D5FA0020FFF7ACFF2846BDE863
:105280003840F122002100F08FBF00003C000020D8
:105290002DE9F0411B4E0446012240213046FCF727
:1052A00062FB002280213046FCF75DFB164D28682A
:1052B0008463012210213046FCF755FB0022202197
:1052C0003046FCF750FB2868C463104F0022802151
:1052D0003846FCF748FB012208213046FCF743FB27
:1052E0000B4D28688463012220213846FCF73BFBE4
:1052F000002240213846FCF736FB2868C463BDE82D
:10530000F0810000000C014018030020001401404F
:10531000D00200204FF001088AB047464646454675
:105320004446FCF733FBFDF75BFEFDF789FBFDF719
:105330007BFDFDF79BFCFDF705FCFDF75DFCFDF734
:10534000D7FCFDF717FDFDF78BFD04217E48FDF727
:1053500013F808217C48FDF70FF80C217B48FDF776
:105360000BF808217A48FDF707F800217748FDF788
:1053700003F804217748FCF7FFFF08217548FCF784
:10538000FBFF04217448FCF7F7FF08217248FCF783
:10539000F3FF012271497248FDF768FA01226F4953
:1053A0007048FDF763FA0120FCF7AAF96EA0FEF73A
:1053B000AFF873A0FEF7ACF877A101A8FEF7B8F834
:1053C00001A8FAF7F3FE82B2322301A96448FDF77F
:1053D0007FFADFF8D8B187215846CBF800104FF09C
:1053E000000A5A21C0E9011ACBF80C10D14670A06E
:1053F000CBF81010FEF78CF8FFF7C2FA0BF114008F
:105400007349C0E90019734AC0E90221C0E9049256
:10541000C0F86090C0F85C90C0F85890C0F8549004
:10542000DFF8B491D9F800000A280DD2DFE800F0C7
:10543000050D1B882D3D4F886C7B68A0FEF768F832
:105440004FF47A70FCF75CF97AE05A2187205246D3
:105450008BE80700CBF80C10CBF810100B4600912E
:10546000FFF7DEF9E9E700F083FEFFF795FE40F66F
:10547000B830FFF739F804E05AA0FEF749F8A8F170
:105480000108B8F1000FF7D15AE0FDF775FDD9F822
:105490000C00FFF7B7FE03E055A0FEF739F87F1EBA
:1054A000002FF9D1FFF75AFE4AE00121D9F80C008C
:1054B00000F032FA0A20FCF723F9C9F80CA003E047
:1054C00051A0FEF725F8761E002EF9D138E0D9F864
:1054D000081061B901210A46C9F808101F4921487E
:1054E000FDF7C4F903E04CA0FEF712F86D1E002D85
:1054F000F9D11420FCF704F900F07EF908200FE040
:1055000048A0FEF705F8641E002CF9D11420C9F854
:1055100008A0FCF7F5F8C9F804A0FFF789FE012000
:1055200000F05CFA0CE087215846CBF800105A21B5
:10553000C0E9011ACBF80C10CBF81010FFF720FAD5
:1055400000F084FB6EE70000F801002088020020D4
:105550004002002018030020D00200202400002078
:1055600060030020A803002055415254315F496E6A
:1055700069742053454343555353210A00000000EA
:1055800055415254335F496E697420534543435526
:105590005353210A0000000061726D20696E697426
:1055A00020616C6C2072696768740A003C000020FE
:1055B000616E676C655F696E743A3133353A3039C4
:1055C000303A3030303A3039303A3039300A000031
:1055D0008F426C431F85D54200000020666C6167D6
:1055E0003D310A005472616365206D6F64650A0085
:1055F00043656E746572696E67206D6F6465206DBA
:105600006F64650A000000005A2D61786973206D8F
:105610006F64650A000000004C61736572206D6F55
:1056200064650A0047726162204120506C616365C5
:10563000206D6F64650A00002DE9F047144D0027C6
:10564000DFF848802C683E4621464846FAF787FE38
:10565000814620466968FAF7D4FE01463046FAF7DB
:10566000D6FE824649463846FAF7D1FE064621461E
:105670004046FAF7CCFE3146FAF771FE5146FAF78A
:105680006EFEFBF7BCF86C60BDE8F0870080544408
:105690002C0000202DE9F0410A4C054616460F4625
:1056A0002068FBF7ACF801462A463846FDF760F95A
:1056B0002068FBF7A4F801462A463046BDE8F041D1
:1056C000FDF7EEBB2C000020F8B50E460546184C41
:1056D0002AE014DD2068304420600220FCF710F836
:1056E000208A80B20090A08983B2208982B2A088EB
:1056F00081B2208880B2FFF793F8AD1B14E015DA71
:105700002068801B20600220FBF7FAFF208A80B20D
:105710000090A08983B2208982B2A08881B22088BB
:1057200080B2FFF77DF83544002DD2D1F8BD0000DE
:105730003C0000202DE9F843894605462C4E2D4CAF
:1057400052E027DD4846FBF733F8F168FAF707FE29
:10575000306000F053F90220FBF7D2FFB06CFBF78A
:105760004EF880466060F06CFBF749F80746A06091
:10577000306DFBF744F8E060218A83B289B2009172
:105780002088BAB21FFA88F180B2FFF749F8A5EB7A
:10579000090526E025DA4846FBF70AF8F168FAF72A
:1057A00033FE306000F02AF90220FBF7A9FFB06C4D
:1057B000FBF725F880466060F06CFBF720F80746A1
:1057C000A060306DFBF71BF8E060218A83B289B2DC
:1057D00000912088BAB21FFA88F180B2FFF720F852
:1057E0004D440120FBF78CFF002DAAD1BDE8F883C2
:1057F000500000203C00002070B50E4C02E000BFBD
:1058000000F024FA20680028FAD00B4D0B4E2068D7
:10581000642809DDE868B04206DC00F017FA0121CF
:105820000520FFF787FFF2E7BDE870400120FFF792
:10583000D1BC000004000020500000200080A243E2
:105840002DE9F84F8A460546314E324C5CE02CDD9E
:105850005046FAF7ADFF3169FAF781FD706000F04C
:10586000CDF80220FBF74CFF706CFAF7C8FF8146B9
:105870002060B06CFAF7C3FF80466060F06CFAF706
:10588000BEFF0746A060306DFAF7B9FFE060218ADD
:1058900083B289B20091BAB21FFA88F11FFA89F077
:1058A000FEF7BEFFA5EB0A052BE02ADA5046FAF711
:1058B0007FFF3169FAF7A8FD706000F09FF80220C1
:1058C000FBF71EFF706CFAF79AFF81462060B06C00
:1058D000FAF795FF80466060F06CFAF790FF074694
:1058E000A060306DFAF78BFFE060218A83B289B245
:1058F0000091BAB21FFA88F11FFA89F0FEF790FF03
:1059000055440120FBF7FCFE002DA0D1BDE8F88F27
:10591000500000203C0000202DE9F8438946054650
:105920002C4E2D4C52E027DD4846FAF741FF7169B5
:10593000FAF715FDB06000F061F80220FBF7E0FE19
:10594000B06CFAF75CFF80466060F06CFAF757FFC6
:105950000746A060306DFAF752FFE060218A83B2FB
:1059600089B200912088BAB21FFA88F180B2FEF79E
:1059700057FFA5EB090526E025DA4846FAF718FF98
:105980007169FAF741FDB06000F038F80220FBF7CA
:10599000B7FEB06CFAF733FF80466060F06CFAF740
:1059A0002EFF0746A060306DFAF729FFE060218ADC
:1059B00083B289B200912088BAB21FFA88F180B20E
:1059C000FEF72EFF4D440120FBF79AFE002DAAD1D1
:1059D000BDE8F883500000203C00002010B50446CC
:1059E000014603A0FDF794FD0348046010BD0000CC
:1059F000666C61673D256400000000202DE9F05FC2
:105A0000864C4FF00009DFF81882DFF818B2DFF893
:105A100018A22068FAF744FF844A854BFAF7CAFDBA
:105A2000FAF76AFFA06165680646E561A068FAF7C3
:105A300037FF804A804BFAF7BDFDFAF75DFF01465C
:105A40002062FAF7E4FC074629460846FAF7DFFC2D
:105A5000054631460846FAF7DAFC2946FAF77FFC94
:105A60003946FAF77CFCFAF71BFF00224346FAF7A7
:105A7000A1FD00225D465B46FAF726FF0DD2C4F871
:105A80002490C4F82890C4F82C90C4F83090C4F83E
:105A90003490C4F83890BDE8F09F206A0146FAF7C8
:105AA000B6FC0746E0690146FAF7B1FC0646A06974
:105AB0000146FAF7ACFC3146FAF751FC3946FAF7E1
:105AC0004EFCFAF7EDFE00224346FAF773FD002282
:105AD0002B46FAF7E7FDFEF765FDFAF70DFF80F0BC
